:020000040800F2
:10000000B8460120610300087D3F0008353600082E
:10001000893C00089F2A0008A9560008000000003B
:10002000000000000000000000000000A90200081D
:100030009D2C000800000000FD020008B54E0008DD
:100040007B0300087B0300087B030008DD470008F2
:100050007B0300087B030008B12F00087B03000826
:10006000D92F000801300008293000087B03000860
:100070007B0300087B0300087B0300087B03000868
:100080007B0300087B0300087B0300087B03000858
:100090007B0300087B0300087B0300087B03000848
:1000A0007B0300087B0300087B0300087B03000838
:1000B0007B0300087B0300087B0300087B03000828
:1000C0007B0300087B0300087B0300087B03000818
:1000D0007B0300088D5100081552000811530008D9
:1000E0007B030008554700087B0300087B030008DA
:1000F0007B0300087B0300087B0300087B030008E8
:100100007B0300087B0300087B0300087B030008D7
:100110007B0300087B030008514F00087B030008A5
:100120007B0300087B0300087B0300087B030008B7
:100130007B0300087B0300087B0300087B030008A7
:100140007B0300087B0300087B0300087B03000897
:100150007B0300087B0300087B0300087B03000887
:100160007B0300087B0300087B0300087B03000877
:100170007B0300087B0300087B0300087B03000867
:100180007B0300087B03000800F002F800F07CF815
:100190000AA090E8000C82448344AAF10107DA45E2
:1001A00001D100F071F8AFF2090EBAE80F0013F0B8
:1001B000010F18BFFB1A43F001031847609E0000AF
:1001C000809E00000A444FF0000C10F8013B13F031
:1001D000070408BF10F8014B1D1108BF10F8015BA0
:1001E000641E05D010F8016B641E01F8016BF9D193
:1001F00013F0080F1EBF10F8014BAD1C0C1B09D1EA
:100200006D1E58BF01F801CBFAD505E014F8016B5B
:1002100001F8016B6D1EF9D59142D6D370470000ED
:100220000023002400250026103A28BF78C1FBD8FF
:10023000520728BF30C148BF0B607047662908F0DD
:100240006F86642900F05482782900F0B8827329FF
:1002500000F0F787002070471FB508F054FE9DE8B6
:10026000030000F021FD01F0ABF8040000200021A4
:1002700008F020FA401C60600020002108F030FAED
:10028000E0601FBD10B510BD01F04EFC1146FFF738
:10029000E3FF05F087FF01F071FC03B4FFF7F2FF05
:1002A00003BC05F0F3FB00002A4B19680868B0E8AE
:1002B000F04F80F30988BFF36F8F4FF0000080F399
:1002C000118870470000000006480068006880F34D
:1002D000088862B661B6BFF34F8FBFF36F8F00DF40
:1002E00000BF00BF08ED00E0DFF80C00016841F43A
:1002F00070010160704700BF88ED00E0EFF30980F6
:10030000BFF36F8F134B1A681EF0100F08BF20ED5C
:10031000108A20E9F04F106008B44FF0500080F3CD
:100320001188BFF34F8FBFF36F8F07F089FF4FF036
:10033000000080F3118808BC19680868B0E8F04F25
:100340001EF0100F08BFB0EC108A80F30988BFF3CD
:100350006F8F704758000020EFF305807047000052
:100360000948804709480047FEE7FEE7FEE7FEE749
:10037000FEE7FEE7FEE7FEE7FEE7FEE70448054985
:10038000054A064B70470000E94E00088901000845
:10039000B8400120B8460120B8420120B8420120EF
:1003A00070B5064600F064FC056806F10B0020F00D
:1003B0000704B4429CBF002070BD2B466A68BAB1E6
:1003C0001068A04210D304F1080188423CBF506875
:1003D000586007D35168101941601168091B01600A
:1003E00058601460101D70BD13465268002AE7D192
:1003F0002146284600F044FC0028DED170BD70B5CF
:100400000446051F00F034FC0068002C14BF44684B
:1004100070BD002C18BFAC423CBF20466468F8D3C6
:1004200001680A18AA4218BF456003D12A68054628
:100430001144016028684119A1421CBF6C6070BD65
:100440006168696021680844286070BD70B50D4618
:100450000646041F00F00CFCD0F800C0C5B1E6B1A0
:1004600005F10B0020F00703AB423CBF002070BD3C
:100470002068984238BFDCF8042013D3C11A082939
:100480002FD3E01840F8041B2360FFF7B8FF28E0E3
:100490003046FFF7B4FF002070BD2846BDE870402D
:1004A000FFF77EBF002A18BFA2423CBF94465268A5
:1004B000F8D30119914216D111680844984212D319
:1004C000C11A08293CBF2060506808D35168E01861
:1004D0004160216812681144C91A01602360CCF898
:1004E0000400201D70BD181FFFF75AFF050007D03C
:1004F00021680A1F211D00F02DFF201DFFF77FFF3F
:10050000284670BD53EA020C00F069802DE9F04BDB
:100510004FF00006002B1FBFB3FA83F503FA05F472
:1005200024FA05F65E4012BF1643B2FA82F502FACB
:1005300005F4C5F120051EBF22FA05FC44EA0C04AF
:10054000203556EA044C4FEA144418BF641C4FF09F
:1005500000084FF00009904271EB030C39D30029D9
:1005600019BFB1FA81F701FA07F6B0FA80F700FA7D
:1005700007F6C7F120071EBF20FA07FC46EA0C0663
:100580002037B6FBF4FCA7EB0507103F07F01F0B65
:10059000CBF120060CFA0BFB2CFA06F644BFB3464F
:1005A0000026202FA4BF5E464FF0000B5BEA060C2E
:1005B00008BF4FF0010B19EB0B09ABFB027C48EBBA
:1005C0000608C01B06FB02CC0BFB03CC71EB0C0135
:1005D000C1E70B46024641464846BDE8F08B13B5DD
:1005E0004FF000004FF00001AFF30080BDE81C4069
:1005F000704710B5044600F033FB0068005DC0068C
:1006000002D504F1200010BD204610BD0FB40449EE
:1006100010B503AA029800F019FE10BC5DF814FB97
:10062000140000200FB41CB5084B06AA7B44694691
:100630000090059800F0DBFD04460020694600F0BC
:10064000E9FD20461CBC5DF814FB0000E50B000032
:1006500070B5044685690068C10601D5302600E002
:100660002026C00707D070BDD4E90121304690474D
:10067000206A401C20626D1EF6D570BD70B5044620
:1006800085690078C00707D170BDD4E90121202019
:100690009047206A401C20626D1EF6D570BD70B573
:1006A0000C460546012A05D02878800600D5EA695F
:1006B000002302E0012305E05B1C934202D2E05CD0
:1006C0000028F9D1A869E618C01AA861286A184458
:1006D00028622846FFF7BCFF04E0D5E9012114F8A1
:1006E000010B9047B442F8D32846FFF7C7FF70BD0F
:1006F0002DE9F0410646002410687529314616A5FB
:1007000010D0AFF30080002802DA404213A507E0C2
:1007100031688A0701D512A502E0490704D511A561
:10072000012401E0AFF3008000210A2206F1240732
:1007300009E0B0FBF2FCB0FBF2F302FB1C0030302E
:1007400078541846491C0028F3D123462A463046DF
:10075000BDE8F04100F0DEBA000000002D0000000E
:100760002B00000020000000F0B40D4601880905B0
:1007700002D5214C7C4402E01F4C7C440E34002105
:1007800000F1240608E002F00F071209E75D42EAD3
:1007900003721B097754491C52EA0307F3D102780C
:1007A0000023120704D5702D06D009B1022311349D
:1007B0002246F0BC00F0AEBA01231034F8E770B561
:1007C00004460D4621461068AFF3008002462946D4
:1007D0002046BDE870400023C6E7D21D22F0070383
:1007E000D3E90023C0E70368126843F020030360E5
:1007F0000823C3610023B7E7079400002DE9F05FE9
:10080000894604464FF0000ADFF874B1FB44C0F893
:1008100020A02046E1688847002874D0252806D00B
:10082000D4E901219047206A401C2062F1E70026AC
:100830005F462046E16888472028054607DB312DC2
:1008400005D2781910F8200C08B10643F1E7B0077B
:1008500001D526F00406C4F81CA00027C4F818A08F
:100860002A2D09D0284605F00AF938B304EB870889
:10087000303DC8F8185019E059F8041B204604EB25
:1008800087029161E1688847012F054618D1E06928
:10089000002820DA26F020061DE0D8F8180000EB2A
:1008A000800005EB40003038C8F818002046E168A9
:1008B0008847054605F0E3F80028EED1012F0AD05D
:1008C0002E2D08D12046E16888477F1C0546022F5F
:1008D00046F02006C4DBA069002803DA404246F057
:1008E0000106A061F00701D026F010066C2D0BD098
:1008F000682D09D04C2D39D06A2D35D0742D35D0C6
:100900007A2D33D016E038E0E1682F46204688473C
:10091000B842054609D16C2F26D04FF48060E168BB
:10092000064320468847054604E06C2F1AD04FF452
:10093000807006430DB3A5F14100192802D8203577
:1009400046F400664A462946204626604E46FFF792
:1009500075FC80B101280BD0F61D26F0070000F1D0
:10096000080956E74020E4E78020D8E70020D6E7D2
:1009700006F104094DE7284652E7206ABDE8F09FDA
:100980009793000030B505460B462A4613F8014BF5
:1009900012F8010B08B1A042F8D01CB1002802D017
:1009A0006D1CF1E7284630BD10B5431C02E010F87D
:1009B000011B71B18107FAD14FF0013202C88C1AC4
:1009C0008C4314EAC211F9D0C01A0A0603D0C01E23
:1009D00010BDC01A10BD0A0401D0801E10BD09024E
:1009E000FCD0401E10BD40EA010370B59B072ED11C
:1009F0004FF00136042A2AD308C810C99D1B9D4315
:100A0000121F15EAC61517D0D8B2E1B2401A50EA43
:100A1000056110D198B2A1B2401A50EA05410AD13D
:100A200023F07F4024F07F41401A50EA052102D193
:100A3000180EA0EB146070BDA342DBD018BA21BA27
:100A4000884201D9012070BD4FF0FF3070BD0AB956
:100A5000002070BD10F8013B11F8014B63B1A342B7
:100A60000AD1521E08D010F8013B11F8014B1BB1FE
:100A7000A34201D1521EEDD1181B70BD421E12F8C7
:100A8000013F002BFBD111F8013B002B02F8013B89
:100A9000F9D17047032A40F2308010F0030C00F0C7
:100AA000158011F8013BBCF1020F624498BF11F8A8
:100AB00001CB00F8013B38BF11F8013BA2F1040261
:100AC00098BF00F801CB38BF00F8013B11F00303D9
:100AD00000F04084083AC0F0088051F8043B083A1E
:100AE00051F804CBA0E80810F5E7121D5CBF51F8DF
:100AF000043B40F8043BAFF30080D20724BF11F859
:100B0000013B11F801CB48BF11F8012B24BF00F8BD
:100B1000013B00F801CB48BF00F8012B704701F002
:100B2000FF03114601B543EA032242EA024200F004
:100B30000BF801BD02F0FF0343EA032242EA02423E
:100B400000F002B84FF000020429C0F0128010F04B
:100B5000030C00F01B80CCF1040CBCF1020F18BF99
:100B600000F8012BA8BF20F8022BA1EB0C0100F02C
:100B70000DB85FEAC17C24BF00F8012B00F8012BFF
:100B800048BF00F8012B70474FF0000200B5134634
:100B900094469646203922BFA0E80C50A0E80C509D
:100BA000B1F12001BFF4F7AF090728BFA0E80C504E
:100BB00048BF0CC05DF804EB890028BF40F8042B47
:100BC00008BF704748BF20F8022B11F0804F18BFB4
:100BD00000F8012B704700004FF0013C50F8042B47
:100BE00051F8043B9A4221D1A2EB0C03934313EA40
:100BF000CC1317D150F8042B51F8043B9A4215D16D
:100C0000A2EB0C03934313EACC130BD150F8042B43
:100C100051F8043B9A4209D1A2EB0C03934313EA27
:100C2000CC13DBD04FF00000704700BFD01A01BAE0
:100C3000B1FA81F101F0180122FA01F0CB40C1F1C3
:100C40002001DBB2C0B2C01A2CFA01F3D11A9143D1
:100C500011EAC311E6D17047704770477047000032
:100C600010B500F0ADFB001D10BD00BF497A0000BB
:100C7000004870475C4001207047704770477047DC
:100C800038B504460A4600206946AFF300800028C4
:100C900008BF38BD02460099204600F095FB0120B0
:100CA00038BD012000F038BFF8B5AFF3008005462D
:100CB00000200C46102000BF0646A819A0420DD9FE
:100CC000324669460020AFF30080070008BF00F0FD
:100CD00023FF0098A04218BF0546C419FFF7C8FFBC
:100CE00005600746F01D20F007004619284600F071
:100CF0000AF8B44208BFF8BDA21B31463868BDE807
:100D0000F84000F061BB00210160C0E901107047AC
:100D1000102070472DE9F0470D469946924604464B
:100D200000F124080168880604D5E06921F010016B
:100D3000216000E00120A84201DD471B00E0002700
:100D4000A1697A1902EB0900081AA0612078C0068F
:100D500002D42046FFF77CFC002608E0D4E90121FC
:100D60001AF806009047206A401C761C20624E4507
:100D7000F4DB2078C0060AD52046FFF769FC06E0C0
:100D8000D4E9012130209047206A401C2062381E9F
:100D9000A7F10107F4DC07E0D4E9012118F8050008
:100DA0009047206A401C2062281EA5F10105F3DC53
:100DB0002046FFF763FC2078000602D50220BDE83C
:100DC000F0870120FBE770472DE9FF4F0C461E46D8
:100DD0004FF0FF378BB0D2E90001DDF860800A9058
:100DE0008A46C1F30A5505B93D46002108464FF031
:100DF0000000BAF1000F00F4400005DA00EB8000BB
:100E00004FF4400101EA50004FEA9059B9F1010F47
:100E100000DDB9460A9850EA4A000ED044F6105058
:100E2000A5F2FF3545432F14B8F1000F1ED07542CF
:100E3000291E1EDDC9F100021CE0B8F1010F4FF0C0
:100E4000000001D0302103E0F24305E02154401CB2
:100E5000B042FBDB30460022002121540B99C1F83F
:100E60000880C1E900200FB0BDE8F08FBD1B6D1CEC
:100E7000DEE74A4600DA694206A800F0D7FD06AB75
:100E800093E8070003AB83E8070050460A9901F096
:100E900014F98DE80700A0F500501F380090039862
:100EA000002D0ADD42F21F014A460844002303A92F
:100EB0000390684601F0C0FB09E0A0F500504A46E7
:100EC0001F38002303A90390684601F0DFFB8DE87B
:100ED00007000004000C03D04FF0FF30410800E091
:100EE0001046B8F1000F03D00022009215461EE014
:100EF000751E05D400F082FA303262556D1EF9D5A8
:100F0000B3460122084302D000227F1C04E020786F
:100F1000302801D100227F1E002A099784D01DE0CD
:100F2000112D07DA00F06AFA303262556D1C50EA72
:100F30000102F5D1084302D00098C8B10EE00021AB
:100F4000681E05E0235C625C63542254401E491C09
:100F50008142F7DBAB46A81B401E0990002004F835
:100F60000B000B98099AC0F80880C0E9002B7AE7BB
:100F700011264FF0000857E72DE9F04F8846044648
:100F8000D21D22F0070191B0D1E90001CDE90A019B
:100F900004F044FC02460B98C00F01D02D2007E05E
:100FA0002068810701D52B2002E0202101EAC00042
:100FB000032A099001D0072A05DB03464146204653
:100FC00000F06AFA0BE12078800601D5E06900E0C4
:100FD0000620B8F1650F814606D0B8F1660F18D02B
:100FE000B8F1670F70D131E00020B9F1110F009016
:100FF00001DB112301E009F101030AAA01A90CA8F0
:10100000FFF7E2FEDDE90C70002609F101058346D9
:1010100047E001204B4600904FF000470AAA01A983
:101020000CA8FFF7D1FEDDE90DB00C995D46002656
:1010300010B909F101000D18B9EB050003D4C0F196
:10104000FF3609F10105A5EB09002BE0B9F1010F0D
:1010500001DA4FF001090020B9F1110F0090484664
:1010600001DD112300E003460AAA01A90CA8FFF73D
:10107000ABFEDDE90C704D46002683462078000764
:101080000AD4AB4500DA5D4601A8012D04DD411903
:1010900011F8011C302907D04F4502DA17F1040F6F
:1010A00004DA012082460FE06D1EEEE7002F02DC1D
:1010B000ED1B3E4403E0781CA84200DD7D1CB81BFC
:1010C00000F1010A4FF000472078000703D4AA4539
:1010D00001DB4FF0FF3A0021B7F1004F0DF143085B
:1010E0008DF8431024D002202B23002F01DA7F42F9
:1010F0002D230A21021EA0F1010000DC5FB197FB45
:10110000F1FC97FBF1F201FB1C7C17460CF1300C53
:1011100008F801CDEEE7A8F1010003702188090568
:1011200001D5452100E06521A0F1010800F8011C6E
:1011300009980FA9A1EB0807FF1D00B10120411973
:1011400001EBEA70A1693844081A401EA0612078BA
:10115000C00602D42046FFF77BFA099828B1D4E9EB
:1011600001219047206A401C20622078C00622D5C9
:101170002046FFF76DFA1EE0002E04DBB34502DDCA
:1011800001A8805D00E03020D4E901219047206A69
:10119000401C2062761CAAF101005FEA000A0AD115
:1011A00000F00EF9C0680168405CD4E90121904765
:1011B000206A401C2062281EA5F10105DCDC07E046
:1011C000D4E9012118F8010B9047206A401C2062E5
:1011D000381EA7F10107F3DC2046FFF74FFA032082
:1011E00011B041E601694A1C02610878704700B5F8
:1011F0008FB0CDE901310021059105497944CDE950
:10120000031011466846FFF7F9FA0FB000BD000061
:10121000E5FFFFFF0A6802F8010B0A60704710B58E
:10122000436913B1AFF3008001E0FFF738FA012002
:1012300010BD127800F124010A7000224A700122C8
:10124000EDE711684FF0FF32E9E70000074B70B59A
:101250000D467B44FFF7CBFF0446284600F058FCC0
:1012600010B14FF0FF3070BD204670BD4F4E0000F2
:10127000426842B1016811F8013B23B1521EC0E936
:101280000012184670470121C160881E70474268ED
:101290005AB1C368016843B983688B4205D0491EBF
:1012A000521CC0E90012002070474FF0FF30704719
:1012B0000FB4002300B589B00CA900910B99CB6045
:1012C000214B7B440693214B7B44079304236FF00F
:1012D0000042CDE901321E4A7A446B46089202462A
:1012E000002007F07FFE09B05DF814FB70B50646DC
:1012F0004FF0FF3015460C46324686B00091CDE9DE
:10130000010169460020049004A8FFF7D1FF0246BE
:101310000498211825B108B1084600E0204628604D
:10132000049800280DD0002A02DD0098884208D0D9
:101330003246081B69460094CDE9010404A8FFF772
:10134000B7FF06B070BD0000ABFFFFFFC3FFFFFF9C
:10135000AB01000010B5203AC0F00B80B1E8185086
:10136000203AA0E81850B1E81850A0E81850BFF48F
:10137000F5AF5FEA027C24BFB1E81850A0E818502E
:1013800044BF18C918C0BDE810405FEA827C24BF82
:1013900051F8043B40F8043B08BF7047D20728BF10
:1013A00031F8023B48BF11F8012B28BF20F8023B5F
:1013B00048BF00F8012B7047004870475440012097
:1013C0000048704774400120034640688C4600285E
:1013D00018BF88423CBF03464068F8D318681844D9
:1013E000884207D00CF1030020F00700001D411ACD
:1013F000521A0146081D0A60FFF701B830B5B0F176
:101400000A024FEA900E71F100034EEA817EB0EBC2
:101410000E0061EB91014FEA101E4EEA017E10EBC7
:101420000E0041EB11114FEA102E4EEA016E10EB47
:101430000E0041EB11214FEA104E4EEA014E10EB27
:101440000E0041EB1141401841F100014FEAD0007C
:1014500040EA41704FEAD10110EB80054FEA810468
:1014600044EA907444EB01046D1944EB0404521BEC
:10147000A3414FF0000348BF0A3200D530BD401CE5
:1014800041F1000130BD10B50446FFF7E9FB0068EB
:10149000005D00F0010010BD2DE9F0411F4604463B
:1014A00003260168072A01F4006004DB08B116A5D1
:1014B00005E016A503E008B115A500E015A521F08B
:1014C00010002060A069C01EA0610FB1401EA06185
:1014D0002046FFF7BDF84FB1D4E9012138469047C7
:1014E000206A401C2062C01C206206E0206AFAE7E5
:1014F000D4E9012115F8010B9047761EF8D2204659
:10150000FFF7BCF8BDE8F0814E414E006E616E0001
:10151000494E4600696E66003A2800D2303820F005
:101520002002412A01D3A2F13700884201D34FF0B3
:10153000FF3070472DE9FF4F06468BB00878FF2833
:1015400006D0491C2D2805D000244FF0000908E0E2
:1015500000200CE00124F8E709EB8903491C00EBAB
:1015600043090878FF28F7D114B1C9F1000081467A
:10157000107800252C46AA4629462D2801D02B2874
:1015800004D1521C2D2813D0002082468B4610789F
:10159000FF280FD04FF0000C0A21521CA5FB017848
:1015A00004FB018105FB0C11C5194BEB0104EEE7AF
:1015B0000120EAE7002108464FF00000BAF1000FD1
:1015C00002D000EB80004008C0F38157012F01DDFD
:1015D0004FF0FF370E9955EA040009EB01080BD0D4
:1015E0004FF0020918F5FA7F16DA4FEACA70002F99
:1015F000706008DD012007E04FEACA70C6E900B05C
:101600000FB0BDE8F08F0020306000F0B3FAC0F8F2
:1016100000901821084616E0B8F5FA7F18DD002F73
:1016200002DAF748784401E0F6487844D0E900103F
:10163000C6E9001040EACA70706000F09BFAC0F87A
:101640000090142108460FB0BDE8F04F07F065BCCC
:10165000002108464FF00000B8F10001099002DABD
:10166000C7F1000200E03A4601DAC8F1000106A81D
:1016700000F0DCF906AB93E8070003AB83E8070052
:1016800044F23E005BEA04010090584604D144F263
:101690001E012C465D460091210C0904014306D130
:1016A0000099240444EA15442D041039009104F0F3
:1016B0007F41014306D10099240244EA15642D02BA
:1016C0000839009104F07041014306D100992401CA
:1016D00044EA15742D01091F009104F040410143B3
:1016E00006D10099A40044EA9574AD00891E0091CA
:1016F00004F00041084304D100986D196441401E74
:1017000000904FF001033A466846B8F1000FCDE96A
:10171000014503A902DD00F0CEFF01E000F0A1FFCA
:10172000BAF1000F04460D4601D084F000440021B8
:1017300008464FF00000099940F2FF77484010F04A
:101740000C0F07D124F00040284303D0C4F30A5003
:10175000B84212D100F00EFAC0F80090C4F30A505B
:10176000B8420AD1A8487844D0E90010C6E9001070
:1017700004F000410843706042E7C6E900543FE7C7
:101780002DE9FF4F1F464FF0000A4FF0FF38454646
:1017900091B0D7E90146CDF83CA0FFF711FEC06833
:1017A0000168405C1090B96912986D1C8847396ACD
:1017B000814688470028F6D1B9F1FF3F0AD0002EB4
:1017C00024F4D06411DDB9F12B0F08D0B9F12D0F3D
:1017D0000BD102E0404615B013E744F48064B969C8
:1017E00012986D1C8847761E8146600504A901D5B4
:1017F0002D2000E02B20002E01F1010B0DF130080F
:101800008DF810003FDDB9F1690F08D0B9F1490F2B
:1018100005D0B9F16E0F02D0B9F14E0F1CD13B4685
:1018200001A8009580E85002DDE912126FF0020075
:1018300007F0DCFBC11CCED10EE0B96912986D1C1B
:10184000884781461398761E44F4007405600F980B
:10185000401C002E0F9016DDB9F1300FEDD0B9F11C
:10186000780F02D0B9F1580F0DD10F9801280AD185
:101870003B46CDE90054DDE91212001F029607F045
:10188000B3FBC11CA7D1109989453ED144F0800417
:1018900006E01399681CAAF1010A44F40074086078
:1018A000B9696D1C1298761E884730288146F0D0A1
:1018B0002BE01099894505D1200603D4761E44F00B
:1018C000800418E0484604F0DAF808B3761E0DF1FB
:1018D00023018B4544F4007408D2A9F130000BF8C1
:1018E000010B200607D5AAF1010003E0200602D46F
:1018F0000AF101008246A00502D51399681C086010
:10190000B96912986D1C88478146002ED1DC53E0DE
:10191000002E51DDB9F1650F02D0B9F1450F4BD161
:10192000A00549D5B9696D1C1298761E24F440743F
:101930008847002E81460CDD2B2804D0B9F12D0FED
:1019400007D144F48074B96912986D1C8847761EDB
:101950008146E00501D52D2100E02B2108F8011B6F
:10196000CDF8008021E0761E0DF13901884544F460
:1019700000740CD2A9F1300010F0FF0088F80000CC
:1019800002D10099884509D908F1010806E0E0056F
:1019900001D51E4801E042F20F708246B9691298E3
:1019A0006D1C8847814613980560002E04DD48466B
:1019B00004F065F80028D6D1F96912988847FF200D
:1019C00053468BF8000088F8000000200A900B9026
:1019D00004AA0CA90AA8FFF7ADFDA00502D46FF078
:1019E0000100F8E614F0240F12D0E0071CD138688B
:1019F000DDE90A12031D3B600068C0E9001213E034
:101A00001C8A00000E8A0000D2880000F1D8FFFF77
:101A10000AA9684604F020F8E00705D13868009A62
:101A2000011D3960006802602846D4E62DE9F047C0
:101A3000814616468AB0354878440DC88DE80D00B9
:101A400032487844801C03AC0DC884E80D0041F690
:101A50009B300844372190FBF1F290FBF1F5A5F1A2
:101A6000800501FB12041B3C02D56442012000E00A
:101A70000020DFF898A080460027FA44AAF1BE0AA9
:101A80000EE0E0070AD03246684607EB4701012323
:101A90000AEB810100F0FAFD8DE8070064107F1C5D
:101AA000002CEED1194F7F44AE3F19E0E80715D066
:101AB00007EB04100DF1180A90E80E008AE80E00FA
:101AC000C068F04201D1981908903246012306A956
:101AD00003A800F0DBFD03AB83E807006D10641C76
:101AE000002DE3D14FF0010332466946B8F1000FF3
:101AF00003A802D000F0A0FD01E000F0C7FDC9E995
:101B00000001C9F808200AB0BDE8F087F88100009C
:101B1000007B00F08000704710B500F03DF8BDE894
:101B2000104000F034B870477546FFF745FCAE46EC
:101B300005006946534620F00700854618B020B5D9
:101B4000FEF71CFCBDE820404FF000064FF00007F8
:101B50004FF000084FF0000B21F00701AC46ACE855
:101B6000C009ACE8C009ACE8C009ACE8C0098D46C2
:101B700070470000004870475440012010B50446EB
:101B8000AFF300802046BDE81040FEF786BB00287A
:101B900001D003F07BBF704710B5012805D00021AC
:101BA00003A000F057FA012010BD09A1F8E70000DA
:101BB00053494752544D454D3A204F7574206F6636
:101BC0002068656170206D656D6F7279000000009E
:101BD0003A2048656170206D656D6F727920636F82
:101BE000727275707465640010B5FFF7C3FF00680A
:101BF00010BD10B50446FFF7BDFF046010BD000026
:101C00002DE9FF4F1F464FF03C0987B04FF00042CF
:101C1000DDE9141001F10108DDF858A002EA405096
:101C20000390002005908346054604460490B96958
:101C3000461E08988847AAF1010A0290BAF1000FDF
:101C40003BDD02982E2815D01021FFF765FC0028F7
:101C50002EDB4FF0010B0599014317D0B9F1000FAE
:101C60000BDB4A46C11700F015FA05430C43A9F1F6
:101C7000040905E0012004900BE008B145F00105DE
:101C800001200590049820B9361D02E0049800B1A7
:101C9000361FB969089808F101088847BBF1000FA1
:101CA000AAF1010A0290C9D00999C1F80080C5E7DC
:101CB0000298702808D0502806D0F96908988847FB
:101CC000BBF1000F14D04FE0002002900120BBF1C7
:101CD000000F049009D0B969089808F101088847F5
:101CE000AAF10109B9F1000F07DCF96908988847E2
:101CF0006FF001000BB0BDE8F08F2B2804D02D2829
:101D00000CD14FF0FF300490B969089808F1010830
:101D10008847A9F10109B9F1000FE6DD411CE4D0C3
:101D20000A21FFF7F9FB0028DFDB029908F101081F
:101D300001EB810100EB41000290B96908988847E6
:101D40000A21FFF7E9FB099AA9F10109B9F1000F8E
:101D5000C2F8008001DD0028E7DAF96908988847B1
:101D60000499029800FB016655EA040004D004F0CF
:101D70004041090002D006E0039898E0A40044EA3C
:101D80009574AD00B61E04F00041080002D16D1933
:101D90006441761E159810F0240F03D04FF00B0904
:101DA0005C4803E04FF028096FF07D0082465645FD
:101DB00007DAAAEB06018944B9F1410F01DD4FF0C2
:101DC000410901200021A9F1010200F063F9024656
:101DD00028400B462140084301D0012100E00021AA
:101DE000501E029143F1FF3128402140084301D0A9
:101DF000012000E000200299834651EA0B014FD0F8
:101E0000002108464FF00000039900F4400039B16A
:101E100000EB80004FF4400100EBD07001EA60005D
:101E20008015012802DD4FF0FF3000E013D0401C88
:101E300036D0029860B3BBF1000F0CD14A460120A6
:101E4000002100F027F928402140084301D001205B
:101E500000E00020E0B101204A46002100F01AF91C
:101E6000034640190A4661412D1A8C4111D3B9F13C
:101E7000400F09DD159810F0240F02D0AAF13406A6
:101E800003E0AAF1170600E0761C00254FF000449D
:101E900006E05B1E42F1FF3220EA030521EA02045C
:101EA000CAF10100B04206DA1B49039808430190C9
:101EB000002000900EE0039AC4F3D321E80A0A43FD
:101EC000164940EA44500A433146CDE900026846CB
:101ED00003F0CBFD159810F0240F0BD01598C00718
:101EE00015D13868DDE90012031D3B600068C0E9C8
:101EF00000120CE002A8694603F0AEFD1598C00779
:101F000005D13868029A011D3960006802604046B8
:101F1000F0E6000002FCFFFF0000F07F0000F03F51
:101F20002DE9FF4F92461D4685B04FF00041DDE997
:101F3000124BDDE914727F1E01EA4B50414940F01B
:101F4000FF4940EA0108002122F0200049280491BD
:101F500002D04E2828D04CE03BA0012607C88DE8CF
:101F60000700A9690698641C88477F1E014606D4AD
:101F70001DF8060018B121F0200181420BD0E9695B
:101F800006988847032E34D0082E32D06FF0010017
:101F900009B0BDE8F08F761C032E01D0082EE0D1E9
:101FA000601CCAF80000DCE7A9690698641C884731
:101FB0007F1E2AD420F02000412826D1A969069846
:101FC000641C88477F1E20D420F020004E281CD19E
:101FD000A9690698641C88477F1E48F4002849F4C4
:101FE0008009CAF8004001D4282806D0E96906987B
:101FF00088475FEACB7012D022E0A9690698641C7A
:1020000088477F1E01D4002803DAE96906988847CB
:10201000BCE72928F1D1641CCAF80040E9E71BF0AD
:10202000240F07D028680499031D2B600068C0E9BD
:10203000001805E02868021D2A600068C0F80090BA
:102040002046A5E70000F07F494E46494E495459C5
:102050000000000070B505460C460A2000E06D1C2B
:1020600000F011F835B128780028F8D102E0641C9E
:1020700000F009F814B120780028F8D1BDE87040CC
:102080000A20AFF3008008B569468DF800000320F0
:10209000ABBE08BDB2F120030AD5C2F1200301FA9C
:1020A00002F120FA03F300FA02F041EA030170475B
:1020B00000FA03F14FF0000070475FEA400C08BFE0
:1020C00091F0000F4FEA8C234FEAC12243EA5151AD
:1020D0004FEA1C5018BF00F5F0404FEA300018BF1F
:1020E00041F000415FEA6C5C00F02980BCF1FF3FE9
:1020F00008BF40F080407047130C06BF12044FF039
:10210000100C4FF0000C130E04BF12020CF1080C5F
:10211000130F04BF12010CF1040C930F04BF9200C3
:102120000CF1020CD30F04BF52000CF1010C11464C
:102130004FF00002A0F11F00A0EB0C00704711F05F
:10214000004F08BF704731F000413FF4D5AF0B0C92
:1021500006BF09044FF0100C4FF0000C0B0E04BF2B
:1021600009020CF1080C0B0F04BF09010CF1040C5F
:102170008B0F04BF89000CF1020CCB0F04BF490088
:102180000CF1010CCCF12003A0EB0C0022FA03F3BC
:1021900002FA0CF241EA030100F10100704720F05D
:1021A0007F4C80EA030023F07F47ACEB070303F585
:1021B0007C5300F0004003F1FF032DE980494FEA12
:1021C000154B09B44FEA144325EA0B4E24EA0348A1
:1021D0000FF2042606EB132749083E785FEA320225
:1021E00003FB0667C7F5000707FB06F64FEA5437FF
:1021F0004FEAD64606F1020607FB066CCCF1005CFE
:102200004FEA1C472CEA074C07FB06F40CFB06F5CB
:1022100004EB15464FEA961634BF00204FF00040FD
:102220004FEAD13706FB07FC4FEA1C4C0CFB0BF7BF
:10223000D21B03FB0CF761EB07010CFB0EF7B0EBB5
:10224000074072EB17420CFB08F734BFA2EB0742C2
:10225000B2EB074261EB17414FEA0C444FEA91079A
:1022600006FB07FC4FEA1C4C0CFB0BF7B0EBC7401E
:1022700072EB573203FB0CF734BFA2EBC742B2EB51
:10228000C74261EB57310CFB0EF7B0EBC70072EBA6
:1022900057720CFB08F734BFA2EBC702B2EBC702C0
:1022A00061EB5771039F4FEA816141EA921104EBA0
:1022B000CC044FEAD1374FEA826206FB07FC42EAC0
:1022C00090124FEA80604FEA1C4C0CFB0BF7D21BBC
:1022D00003FB0CF761EB07010CFB0EF7B0EB0740BB
:1022E00072EB17420CFB08F734BFA2EB0742B2EBCC
:1022F000074261EB17414FEA8C554FEA910704EB17
:102300009C2406FB07FC4FEA1C4C0CFB0BF7B0EBC4
:10231000C74072EB573203FB0CF734BFA2EBC74246
:10232000B2EBC74261EB57310CFB0EF7B0EBC700C5
:1023300072EB57720CFB08F734BFA2EBC702B2EB8B
:10234000C70261EB577115EB4C254FEA816141EAF9
:1023500092114FEA82624FEAD13742EA901206FBAD
:1023600007FC44F100044FEA80604FEA1C4C0CFB70
:102370000BF7D21B03FB0CF761EB07010CFB0EF70D
:10238000B0EB074072EB17420CFB08F734BFA2EB2F
:102390000742B2EB074261EB174115EB1C154FEA00
:1023A000813141EA92414FEA823242EA90424FEA59
:1023B00080304FEA0C7644F1000448EA03434EEAC9
:1023C0000B484FF0000EB2EB080C71EB030724BF73
:1023D000624639464EEB0E0E4FF0000B001852418C
:1023E00049414BEB0B0BB2EB080C71EB03077BF194
:1023F000000B24BF624639464EEB0E0E4FF0000B29
:102400000018524149414BEB0B0BB2EB080C71EB3E
:1024100003077BF1000B24BF624639464EEB0E0EDC
:1024200051EA020718BF46F0010616EB0E7655F189
:10243000000254F1000103D5BDE88901BDE8008820
:10244000BDE88901BDE80048B619524141EB0101E0
:10245000A3F10103704780807F7E7D7C7B7A797851
:10246000777676757473727171706F6E6E6D6C6C59
:102470006B6A6A69686867666665646463636261FB
:102480006160605F5F5E5E5D5D5C5C5B5B5A5A597C
:1024900059585857575656555555545453535252E8
:1024A0005251515050504F4F4F4E4E4D4D4D4C4C40
:1024B0004C4B4B4B4A4A4A49494948484847474789
:1024C00047464646454545444444444343434342C6
:1024D000424242414141000046EA0646A3F570539C
:1024E0004FEA164646EA42564FEAD22242EA4152A3
:1024F00010B54FEAD121A3F1010300F02FF820F02D
:10250000004000F1020C00F0004701EB00501146C2
:10251000BCF5006F40EA070000D210BDBAF1000F11
:102520000AD01CB503B44FF004004FF004014FF083
:1025300000000FBCBDE810404FF00001BBF1010FDF
:10254000B9BF04484FF0FF310348002140EA0700BB
:1025500010BD00BFFFFFEF7F0000F07F002B9C4607
:1025600030D477002BD01CB54FEA370703B44FF0B7
:1025700010004FF01001BAF1000F06D0BCF1000FAF
:10258000DCBF40F0080040F008014FF000000FBC35
:10259000BDE810400BF1010BBBF1010F08BF5FEA72
:1025A000170722BF12F1010211F101014FF00041A2
:1025B00043F1000300F0004043EA00007047F9D304
:1025C0005708D0E746EA064613F1400F4FEA164691
:1025D0001FDD13F1200FDFBF16430A460021203311
:1025E0005B42BED0C3F1200746EA064602FA07F76F
:1025F0004FEA164646EA0706C3F1200722FA03F21D
:1026000001FA07F721FA03F14FF0000342EA07024B
:10261000A7E746EA020646EA06464FEA164646EAB3
:102620000106BCBF46EA0646360C4FF000034FF0E9
:1026300000024FF0000194E72DE9804C9A46934642
:1026400070B491E8380007C831EA400C48BF34EA5A
:10265000430C03D5FFF7A3FDFFF780FFF0BCBDE8F7
:10266000008C2DE9804C9A46934670B491E838006E
:1026700007C831EA400C48BF34EA430C03D5FFF7E2
:102680008EFDFFF729FFF0BCBDE8008C2DE9804CE2
:102690009A46934670B491E8380007C810F0804F0E
:1026A00008BF13F0804F03D100F01AF8FFF756FF70
:1026B000F0BCBDE8008C2DE9804C9A46934670B47E
:1026C00091E8380007C810F0804F08BF13F0804F22
:1026D00003D100F005F8FFF7FFFEF0BCBDE8008C69
:1026E00020F07F4780EA030023F07F4C07EB0C03C8
:1026F000A3F57C5300F00040A3F1FE0392F0000F1D
:1027000000F0B38095F0000F00F077802DE90149CB
:102710004FEA11404FEA144621EA004800FB06FC4C
:1027200024EA064708FB06F607FB08F800FB07F754
:1027300018EB06484CEB164C4FEA124B18EB0748C7
:102740004FEA15464CEB174022EA0B4E0BFB06FCFA
:1027500025EA06470EFB06F607FB0EFE0BFB07F706
:102760001EEB064E4CEB164C4FF000061EEB074ED0
:102770004CEB174B18EB0B0840F1000018EB0E0B5D
:1027800058EB000840F100008F1A4FF000013CBFE9
:10279000C943661B14BFB5EB040C00213CBFC94301
:1027A000F61B4FEA17444EEA8E0E27EA04454FEA1D
:1027B0001C4704FB07622CEA074C05FB07F70CFBE0
:1027C00005F604FB0CFC16EB074642EB174216EB32
:1027D0000C4642EB1C421BEB060658EB0202414141
:1027E00046EA9E0601D5BDE80189B619524141EB82
:1027F0000101A3F10103BDE801894FEA14454FEA45
:10280000114724EA054621EA074C05FB07F406FBBD
:1028100007F70CFB06F105FB0CFC11EB074144EB41
:1028200017444FEA124711EB0C4144EB1C4422EAD7
:10283000074C05FB07F206FB07F70CFB06F605FB4A
:102840000CFC16EB074642EB174216EB0C4642EB2C
:102850001C456A1854F1000148BF7047B61952412F
:1028600041EB0101A3F10103704795F0000F37D050
:102870004FEA11424FEA144721EA024624EA074C84
:1028800002FB07F106FB07F70CFB06F402FB0CFC4E
:1028900014EB074441EB17414FEA154714EB0C4486
:1028A00041EB1C4125EA074C02FB07F506FB07F745
:1028B0000CFB06F602FB0CFC16EB074645EB174536
:1028C00016EB0C4645EB1C42121951F1000148BFB2
:1028D0007047B619524141EB0101A3F10103704762
:1028E0004FEA14454FEA114724EA054621EA074C0E
:1028F00005FB07F106FB07F70CFB06F24FF000069D
:1029000005FB0CFC12EB074241EB174112EB0C42AA
:1029100051EB1C4148BF7047921841EB0101A3F1F4
:102920000103704721B1826842F00102826003E036
:10293000826822F001028260704700000021084A8C
:102940001168084A1140D0E900231A4383681A43EA
:10295000C3681A431143044AC2F8041370470000C5
:1029600004230140E030FCFF002001400146C86C18
:1029700080B270470246002013680B400BB1012063
:1029800000E000207047000030B502460020002320
:102990005068104C20400D790C6844EA052420430F
:1029A000506090680C4C2040D1E903542C438D6852
:1029B0002C434D7944EA450420439060D06A20F4CA
:1029C00070000C7D641EE4B2234340EA0350D062E1
:1029D00030BD0000FFFEFFFCFDF7FFC0F0B5044670
:1029E0000D4600200021092D11DDE068A5F10A0641
:1029F00006EB4607072606FA07F18843A5F10A0603
:102A000006EB460603FA06F10843E0600CE0206995
:102A100005EB4507072606FA07F1884305EB45064F
:102A200003FA06F108432061072A0FDA606B561E8D
:102A300006EB86071F2606FA07F18843561E06EBAB
:102A4000860605FA06F10843606322E00D2A0FDAD4
:102A5000206BD61F06EB86071F2606FA07F1884370
:102A6000D61F06EB860605FA06F10843206310E040
:102A7000E06AA2F10D0606EB86071F2606FA07F1AB
:102A80008843A2F10D0606EB860605FA06F1084317
:102A9000E062F0BD816841F080418160704700BF15
:102AA000FEE7000010B5002400F0C8F803E00120A4
:102AB00003F015F9641C4FF400710F4800F075FD28
:102AC000012801D1642CF2DB642C01DB002010BD55
:102AD000002403E0012003F002F9641C4FF40071AC
:102AE000054800F062FD08B9642CF3DB642C01DBBF
:102AF0000020ECE70120EAE700180240F8B50446A0
:102B000000200090002600F07BF8FFF7CBFF08B311
:102B100000250FE0002708E07006060E684600F06A
:102B20001BF89DF8000006437F1C082FF4DB665558
:102B300000266D1C052DEDDB207861780844A17816
:102B40000844E17808442179884201D10120F8BD88
:102B50000020FCE70020FAE770B50546002403E0FA
:102B6000012003F0BCF8641C4FF40071134800F01E
:102B70001CFD012801D1642CF2DB642C01DB002058
:102B800070BD002403E0012003F0A9F8641C4FF499
:102B900000710A4800F009FD08B9642CF3DB642CCD
:102BA00001DB0020ECE7282003F099F84FF40071D6
:102BB000024800F0FAFC28700120E1E7001802400A
:102BC0001CB50121402001F021FD01208DF80400F9
:102BD00000208DF806004FF40070009003208DF85F
:102BE000050000208DF807006946044800F072FCDB
:102BF0004FF40071014800F0E3FC1CBD00180240D6
:102C000010B500F035F84FF400710B4800F0D8FC17
:102C1000052003F064F84FF40071074800F0CEFC83
:102C2000142003F04FF84FF40071034800F0C8FC83
:102C30001E2003F054F810BD001802401CB50121FD
:102C4000402001F0E3FC4FF40070009000208DF86C
:102C500004008DF8060003208DF8050000208DF893
:102C600007006946014800F035FC1CBD0018024011
:102C70001CB50121402001F0C9FC4FF40070009008
:102C800001208DF8040000208DF8070069460248F5
:102C900000F020FC1CBD000000180240704700003E
:102CA00010B52DED088B00244FF480512E4800F014
:102CB00085FC052003F013F84FF480512A4800F0FA
:102CC0007FFC4FF48C7003F00AF82848FFF7E2FE0F
:102CD00000BF02212548FFF74DFE0028F9D0234808
:102CE000FFF744FE04464FF480511F4800F066FC95
:102CF000052002F0F4FF21461DA0FDF787FC2046C9
:102D000005F00DFF41EC1B0B9FED1E0B53EC102B40
:102D100005F054FF41EC1A0B9FED1C0B53EC102BEC
:102D200005F04CFF41EC190B9FED1A0B53EC102BE7
:102D300005F032FD41EC180B05F0E8FC00EE100A3E
:102D4000164880ED000A90ED000A10EE100A06F019
:102D500069F841EC180B53EC182B11A0FDF756FC49
:102D6000BDEC088B10BD000000180240002101409E
:102D70006164635F76616C7565203D2025640D0A92
:102D8000000000006666666666660A4033333333C9
:102D900033331740000000000000B0404000002026
:102DA000B7DBB3BEC5A8B6C8A3BA20256C66206D34
:102DB000672F6D5E330D0A0000B58DB001214020F4
:102DC00001F024FC4FF480500B9001208DF830006E
:102DD00000208DF8320001208DF8330003208DF89B
:102DE00031000BA91F4800F075FB4FF480511D48BE
:102DF00000F0E4FB0121480201F028FC0121084613
:102E000001F004FC10200B9003208DF8300000200E
:102E10008DF833000BA9144800F05CFB00200790EC
:102E2000089009900A9007A8FFF788FD00200190FC
:102E30008DF808008DF809000390059001208DF8A9
:102E4000180001A90948FFF79FFD00230122042172
:102E50000648FFF7C3FD01210448FFF763FD0DB0ED
:102E600000BD0000001802400000024000210140A7
:102E70007CB505461CA0FDF7C9FB00BF00F044F976
:102E80000028FBD11FA0FDF7C1FB00BF00F0FEFE34
:102E90000028FBD121480068032100234FF48072F1
:102EA000CDE900101EA1254805F0AEFA0446B4F1A4
:102EB000FF3F02D122A0FDF7A9FB2A4800680321A9
:102EC00000234FF48072CDE9001027A12E4805F0B1
:102ED0009BFA0446B4F1FF3F02D12CA0FDF796FB0C
:102EE000002005F0E7F87CBD4553503832363620D7
:102EF000697320496E6974696E672E2E2E2E0D0A35
:102F0000000000004553503832363620496E69744F
:102F1000206973204F4B0D0A00000000F4040020CC
:102F20004D5154545F507562696C73685F5065729F
:102F3000696F645F5461736B000000000D3A000814
:102F40004D515454D6DCC6DAD0D4B7A2B2BCCFFBB4
:102F5000CFA2C8CECEF1B4B4BDA8CAA7B0DC0D0ACA
:102F600000000000F80400204D5154545F53656E7A
:102F7000645F4865617274426561745061636B653A
:102F8000745F5461736B0000593A00084D515454FA
:102F9000D6DCC6DAD0D4B7A2CBCDD0C4CCF8B0FC46
:102FA000C8CECEF1B4B4BDA8CAA7B0DC0D0A0000EB
:102FB00010B5012000F052F840B10548007810B972
:102FC000012004490870012000F042F810BD000003
:102FD000DC0400202A00002010B5042000F03EF898
:102FE00040B10548007810B9022004490870042057
:102FF00000F02EF810BD0000DC0400202A000020A4
:1030000010B5082000F02AF840B10548007810B942
:10301000032004490870082000F01AF810BD0000D1
:10302000DC0400202A00002010B5102000F016F863
:1030300040B10548007810B90420044908701020F8
:1030400000F006F810BD0000DC0400202A0000207B
:103050000149086070470000143C0140014600200F
:10306000034A12680A400AB1012000E000207047BC
:10307000143C0140002123498279002A3AD00A46B3
:10308000126803689A430B461A600A1D12680368A7
:103090009A430B1D1A60027911440A6803681A43A7
:1030A0000A60184A0832126803689A43154B0833BD
:1030B0001A601A1D126803689A43124B0C331A6087
:1030C0004279102A0ED11A1F126803681A430D4B59
:1030D00008331A601A1D126803681A43094B0C332F
:1030E0001A600DE00749427911440A6803681A43DF
:1030F0000A6005E0027911440A6803689A430A608D
:1031000070470000003C014010B502F069FF044622
:103110002CB145A0FDF77AFA4FF0FF3010BD4EA05C
:10312000FDF774FA4FF4FA7002F0CCFD4FF4FA7028
:1031300002F0C8FD02F080FF04462CB152A0FDF75A
:1031400065FA6FF00100E9E755A0FDF75FFA4FF46B
:10315000FA7002F0B7FD4FF4FA7002F0B3FD4FF4CD
:10316000FA7002F0AFFD4FF4FA7002F0ABFD02F01E
:10317000D9FD04462CB150A0FDF748FA6FF00200CB
:10318000CCE753A0FDF742FA4FF4FA7002F09AFD33
:103190004FF4FA7002F096FD4FF4FA7002F092FDCF
:1031A0004FF4FA7002F08EFD002002F0B7FE0446E4
:1031B0002CB14DA0FDF72AFA6FF00300AEE752A044
:1031C000FDF724FA4FF4FA7002F07CFD4FF4FA7028
:1031D00002F078FD4FF4FA7002F074FD4FF4FA70CB
:1031E00002F070FD50A153A002F0D8FD04462CB1AE
:1031F00054A0FDF70BFA6FF004008FE758A0FDF71D
:1032000005FA4FF4FA7002F05DFD4FF4FA7002F027
:1032100059FD4FF4FA7002F055FD4FF4FA7002F0C8
:1032200051FD00207AE70000657370383236365F52
:10323000657869745F7472616E73706172656E74C3
:103240005F7472616E736D697373696F6E2066610E
:10325000696C0D0A00000000657370383236365F05
:10326000657869745F7472616E73706172656E7493
:103270005F7472616E736D697373696F6E207375BD
:1032800063636573730D0A00657370383236365F99
:103290007265736574206661696C0D0A0000000038
:1032A000657370383236365F726573657420737576
:1032B00063636573730D0A00657370383236365F69
:1032C000636865636B206661696C0D0A000000002D
:1032D000657370383236365F636865636B2073756B
:1032E00063636573730D0A00657370383236365F39
:1032F000656E61626C655F6563686F283029206662
:1033000061696C0D0A000000657370383236365FF3
:10331000656E61626C655F6563686F2830297375DF
:1033200063636573730D0A007131773265337234EC
:10333000000000004445534B544F502D4337323862
:10334000514F4100657370383236365F636F6E6E71
:103350006563745F6170206661696C0D0A0000002E
:10336000657370383236365F636F6E6E6563745F97
:10337000617020737563636573730D0A000000004C
:1033800000B58BB00121084601F050F9012102205F
:1033900001F03CF90820069002208DF81C00032063
:1033A0008DF81D0000208DF81E0001208DF81F00F3
:1033B00006A91F4800F08EF800214FF0804001F070
:1033C000A0FE012203211A4800F0CCF85320ADF8EA
:1033D0002000632009900020ADF82800ADF82200FD
:1033E00008A94FF0804001F08FFE6020ADF8040086
:1033F0000120ADF8060000200390ADF8100001A9EF
:103400004FF0804001F01EFE0821C80601F06CFE5E
:103410000121880701F0E0FD0121880701F0EBFDA3
:1034200000214FF0804001F06CFE0BB000BD0000A9
:103430000004024010B514480068052820D2DFE8D7
:1034400000F003090E14190000214FF0804001F034
:1034500058FE16E04121880701F053FE11E04B2190
:103460004FF0804001F04DFE0BE05021880601F046
:1034700048FE06E063214FF0804001F042FE00E08C
:1034800000BF00BF10BD00003C00002010B5074881
:103490000068401C0549086008460068042801DDF2
:1034A00004200860FFF7C6FF10BD00003C000020AC
:1034B00010B507480068401E0549086008460068C6
:1034C000002801DA00200860FFF7B4FF10BD0000FB
:1034D0003C000020F0B50A4600210023002400BF74
:1034E0003DE0012505FA01F3156805EA03049C4255
:1034F00034D105684F000326BE40B54305601579F9
:103500004E00B5400668354305601579012D02D09F
:103510001579022D16D185684F000326BE40B543AC
:10352000856055794E00B5408668354385604568AD
:1035300001268E40B5434560456896798E40B6B207
:1035400035434560C5684F000326BE40B543C5609E
:10355000D5794E00B540C6683543C560491C102971
:10356000BFD3F0BDF0B5002300244D07ED0E02FAE5
:1035700005F3CE1000F1200555F826504E07F70E42
:103580000F26BE40B543CF1000F1200646F8275065
:10359000CE1000F1200555F8265045EA0304CE1060
:1035A00000F1200545F82640F0BD024600201369D1
:1035B0000B400BB1012000E00020704741837047B1
:1035C00001837047B2B0C8216846FDF7DDFA19E003
:1035D00004F02EFE0C48FFF791FA0B48037882782E
:1035E0000AA16846FDF71EF8694610A0FDF70EF81F
:1035F00000F096FAFFF754FB04F0DAFF4FF47A601C
:1036000004F02AFDE4E7000044000020CEC2B6C862
:10361000203D20256420A1E62CCAAAB6C83D256419
:103620002025255248200A0A0000000025730D0AB3
:103630000000000000BFFEE71CB50121022000F0E1
:10364000E5FF00208DF8040001208DF807008020A0
:10365000009069460148FFF73DFF1CBD0004024091
:103660001CB50121022000F0D1FF01208DF80400DB
:1036700003208DF8050000208DF8060001208DF84C
:1036800007008020009069460148FFF723FF1CBD1A
:103690000004024010B5FFF7E3FF80210C48FFF75C
:1036A0008FFF40210B48FFF78BFF042002F017FB30
:1036B00080210748FFF782FF042002F010FB402121
:1036C0000448FFF77BFF042002F009FB10BD000057
:1036D00000040240000C024010B5FFF7C1FF40217A
:1036E0000C48FFF76BFF80210B48FFF767FF0420B2
:1036F00002F0F5FA40210748FFF762FF042002F0CC
:10370000EEFA80210448FFF75BFF042002F0E7FA9D
:1037100010BD0000000C02400004024010B500245F
:10372000FFF78AFF40210B48FFF74AFF042002F011
:10373000D6FA80210848FFF738FF00B100E00124E5
:1037400040210448FFF73AFF042002F0C8FA20465F
:1037500010BD0000000C02400004024010B50446F9
:103760004FF4407000F048FC4FF4165004F09CFAFF
:1037700013A0FCF74BFF00F017F900F0A1F801F0DF
:1037800075FFFFF7FDFDFFF71BFA00F02DFAFFF7BD
:1037900013FB4FF4E13001F0EBFD4FF4165001F054
:1037A00061FD00F08BFC01F0E7FB00F047FC00F04E
:1037B0002DFC0AA0FCF72AFF002004F07BFC10BDC2
:1037C000486172647761726520697320496E69741B
:1037D000696E672E2E2E2E0D0A000000486172645D
:1037E0007761726520496E6974206973204F4B0DB3
:1037F0000A00000010B52E48007860B32C4800780D
:10380000012806D0022808D0032812D0042820D18D
:103810001BE00020274908601CE026480068401E85
:103820002449086008460068002801DC042008607C
:1038300010E020480068401C1E49086008460068E7
:10384000052801DB0120086004E001201A49086016
:1038500000E000BF00BF0020154908701549087836
:1038600001F066F81448006808B31248006801289F
:1038700006D0022808D003280AD0042810D10BE073
:1038800001200E4908700CE002200C49087008E085
:1038900003200A49087004E004200849087000E089
:1038A00000BF00BF0020034908600349086010BD45
:1038B0002A000020BC040020C0040020B80400201E
:1038C00000B585B00121084600F0A0FE0121880363
:1038D00000F0BCFE00208DF808008DF80B000120E0
:1038E000019001A92F48FFF7F5FD0021084600F0DF
:1038F00089FF0221042000F085FF0321042000F04D
:1039000081FF0421084600F07DFF1D200390002068
:103910008DF810000C208DF8110001208DF8120098
:1039200003A8FFF7A7FB06208DF8000000208DF804
:1039300001000F208DF8020001208DF80300684679
:1039400000F01EFB08208DF8000000208DF801001B
:103950000F208DF8020001208DF80300684600F06A
:103960000FFB09208DF8000000208DF801000F20CA
:103970008DF8020001208DF80300684600F000FB7E
:103980000A208DF8000000208DF801000F208DF82E
:10399000020001208DF80300684600F0F1FA05B03E
:1039A00000BD0000000002401CB50121202000F0F5
:1039B0002DFE0121102000F029FE4FF4C060009080
:1039C00001208DF8040000208DF8060001208DF8FC
:1039D000070003208DF8050069460A48FFF77AFDC5
:1039E0004FF4C0610748FFF7EBFD4FF4C040009073
:1039F00069460548FFF76EFD4FF4C0410248FFF7E6
:103A0000DFFD1CBD00140240001002401BE004F06A
:103A10000FFC03F003F90C4890ED000A02F0F6FFEA
:103A20000A4890ED000A03F09DF80948006802F08A
:103A30009DFF0848007803F045F804F0B9FD4FF405
:103A4000FA6004F009FBE2E74C000020400000208F
:103A50003C000020DC04002019E004F0E9FB0C48E5
:103A6000007806280DDB03F029F920B100BF00F033
:103A70000DF90028FBD100200549087005A0FCF7CE
:103A8000C5FD04F095FD4FF47A6004F0E5FAE4E733
:103A900030000020B7A2CBCDD0C4CCF8B0FCCDEA2A
:103AA000B3C90D0A0000000010B52DED0A8B0446C5
:103AB0009FED140AB0EE408A204605F030F841EC44
:103AC0001C0B9FED110B53EC102B05F077F841EC1C
:103AD0001B0B9FED0F0B53EC102B04F05DFE41EC24
:103AE0001A0B9FED0D0B53EC102B05F067F841EC12
:103AF000190B04F00BFE08EE100AB0EE480ABDECFC
:103B00000A8B10BD000000006666666666660A40A5
:103B1000000000000000B0405C8FC2F5285CF73F59
:103B200010B52DED048B00249FED1E0AB0EE408AE7
:103B30001D48FEF7AFFF00BF02211B48FEF71AFF2A
:103B40000028F9D01848FEF711FF0446214617A0B7
:103B5000FCF75CFD2046FFF7A7FFB0EE408A18EEA9
:103B6000100A05F05FF941EC190B53EC192B14A066
:103B7000FCF74CFDB0EE480A00F074F8134880EDF5
:103B8000000A90ED000A10EE100A05F04BF941EC26
:103B9000190B53EC192B0EA0FCF738FDBDEC048B70
:103BA00010BD000000000000002001406164635F60
:103BB00076616C7565203D2025640D0A00000000CB
:103BC00070706D3A2025660D0A0000004C00002040
:103BD000BCD7C8A9C5A8B6C83A202566206D672FEE
:103BE0006D5E330D0A00000000B58DB001210802A2
:103BF00000F02CFD0121402000F008FD40200B903A
:103C000003208DF8300000208DF833000BA91348F5
:103C1000FFF760FC00200790089009900A9007A821
:103C2000FEF78CFE002001908DF808008DF8090049
:103C30000390059001208DF8180001A90848FEF7AF
:103C4000A3FE0023012206210548FEF7C7FE01213D
:103C50000348FEF767FE0DB000BD00000000024003
:103C600000200140F0EE400A9FED051AB0EE410A37
:103C70009FED041A20EE811AB0EE410A7047000051
:103C800000000000E3A5AB3F00BFFEE710B5002435
:103C900040F25B723FA149A002F0E8F804462CB163
:103CA00047A0FCF7B3FC6FF0040010BD4CA0FCF77C
:103CB000ADFC4FF4967002F005F802F049F80446A6
:103CC0003CB150A0FCF7A2FC00BFFFF71DFA002892
:103CD000FBD156A0FCF79AFC4FF4FA7001F0F2FF0A
:103CE0004FF4FA7001F0EEFF4FF4FA7001F0EAFFC2
:103CF0004FF4FA7001F0E6FF02F030F904462CB1FF
:103D000055A0FCF783FC6FF00500CEE75EA0FCF742
:103D10007DFC4FF4FA7001F0D5FF4FF4FA7001F01A
:103D2000D1FF4FF4FA7001F0CDFF4FF4FA7001F0BB
:103D3000C9FF624A62A1684802F0B4FB28B167A0DB
:103D4000FCF764FC6FF00600AFE769A0FCF75EFCCF
:103D50004FF4FA7001F0B6FF4FF4FA7001F0B2FFC1
:103D60004FF4FA7001F0AEFF4FF4FA7001F0AAFFC1
:103D70000122002164A002F0FDFF28B170A0FCF731
:103D800045FC6FF0070090E774A0FCF73FFC0020B3
:103D90008BE70000696F742D3036306161796C34C7
:103DA0002E6D7174742E696F746875622E616C6902
:103DB00079756E63732E636F6D000000544350007D
:103DC000657370383236365F636F6E6E6563745F2D
:103DD000736572766572206661696C0D0A00000079
:103DE000657370383236365F636F6E6E6563745F0D
:103DF00073657276657220737563636573730D0AFC
:103E000000000000657370383236365F63686563A2
:103E10006B5F636F6E6E656374696F6E5F73746101
:103E2000747573206661696C0D0A000065737038E3
:103E30003236365F636865636B5F636F6E6E6563B2
:103E400074696F6E5F7374617475732073756363E7
:103E50006573730D0A000000657370383236365F83
:103E6000656E7472795F7472616E73706172656E83
:103E7000745F7472616E736D697373696F6E2066BF
:103E800061696C0D0A000000657370383236365F68
:103E9000656E7472795F7472616E73706172656E53
:103EA000745F7472616E736D697373696F6E207382
:103EB0007563636573730D0A00000000249D00089C
:103EC0006169725F636C65616E6572266B3077390C
:103ED0006745656330394B00689D00086D717474E7
:103EE0005F636F6E6E656374206661696C0D0A00B6
:103EF0006D7174745F636F6E6E6563742073756348
:103F0000636573730D0A00002F7379732F6B30771D
:103F1000396745656330394B2F6169725F636C6542
:103F2000616E65722F7468696E672F73657276694A
:103F300063652F70726F70657274792F736574008A
:103F40006D7174745F7375627363726962655F74B7
:103F50006F706963206661696C0D0A006D7174741D
:103F60005F7375627363726962655F746F706963B2
:103F700020737563636573730D0A0000704700005A
:103F800070B5002100230F22C4781CB3174C24689D
:103F900004F4E064C4F5E064C4F30721C1F104044F
:103FA000E3B20A4144789C40E1B284781440214352
:103FB0000C07210E0E4C05786155047804F01F059E
:103FC0000124AC4005786D11AD0005F1E025C5F880
:103FD000004109E0047804F01F050124AC40054DC0
:103FE0000678761145F8264070BD00000CED00E023
:103FF00000E400E080E100E002490143024A116070
:10400000704700000000FA050CED00E070B50024D8
:104010000CE0002506E00020074901EBC50108552A
:10402000681CC5B2802DF6DB601CC4B2082CF0DB26
:1040300000F0F0F870BD0000FC0C002010B54FF44B
:1040400080610248FCF77EFD10BD0000FC0C0020E2
:1040500070B51446802801DA402900DB70BD0B469C
:10406000CD1701EB5575C5F3C7028CB1CD1701EB28
:104070005575ED10A1EBC5060125B5400E4E06EBBA
:10408000C006B65C35430C4E06EBC006B55411E0D5
:104090000B46CD1701EB5575ED10A1EBC5060125BB
:1040A000B540054E06EBC006B65CAE43024D05EBCF
:1040B000C005AE5400BFD1E7FC0C00201CB50121A7
:1040C000082000F0A3FA0121022000F09FFA01204D
:1040D0008DF8040003208DF8050000208DF80600FF
:1040E00001208DF807004020009069464748FFF7FF
:1040F000F1F98020009069464548FFF7EBF9C820A8
:1041000001F0E0FD0021AE2000F073FA0021084626
:1041100000F06FFA0021022000F06BFA002110205D
:1041200000F067FA0021202000F063FA002140200F
:1041300000F05FFA0021B02000F05BFA002181203E
:1041400000F057FA0021FF2000F053FA0021A120CF
:1041500000F04FFA0021A42000F04BFA0021A62025
:1041600000F047FA0021A82000F043FA00213F2088
:1041700000F03FFA0021C82000F03BFA0021D320D4
:1041800000F037FA0021084600F033FA0021D5206C
:1041900000F02FFA0021802000F02BFA0021D82017
:1041A00000F027FA0021052000F023FA0021D92091
:1041B00000F01FFA0021F12000F01BFA0021DA20A4
:1041C00000F017FA0021122000F013FA0021DB2082
:1041D00000F00FFA0021302000F00BFA00218D20B2
:1041E00000F007FA0021142000F003FA0021EF206C
:1041F00000F0FFF90021AF2000F0FBF9FFF706FF08
:104200000021084600F022F81CBD0000000C02400E
:104210000004024070B5002412E02146002000F0A6
:1042200015F8002508E0084901EBC501085D0121EA
:1042300000F0DFF9681CC5B2802DF4DB601CC4B24D
:10424000082CEADB70BD0000FC0C002070B50446B1
:104250000D46E4B205F1B000002100F0CAF904F007
:104260000F00002100F0C5F9102141EA14100021CF
:1042700000F0BFF970BD2DE9FE4F05460C4616460D
:104280001F46A846A14600200190824643E04FF019
:10429000000B34E00198411CC9B201910C99085CF3
:1042A00000900020029019E0009800F0010028B171
:1042B000012249464046FFF7CBFE04E00022494672
:1042C0004046FFF7C5FE00984010009009F101003C
:1042D00000F0FF090298401CC0B202900298082822
:1042E000E2DBA9EB0400B84205DBA14608F10100BE
:1042F00000F0FF0805E00BF1010000F0FF0BBB45EB
:10430000C8DB00BFA8EB0500B04200DB05E00AF106
:10431000010000F0FF0AB245B9DB00BFBDE8FE8F27
:104320002DE9FC4F07460C4690461D46A246A8F1D3
:104330002000C0B2019010200090002630E01B4900
:10434000019801EB001010F806B04FF0000921E0D1
:104350000BF0010028B12A4621463846FFF778FEC7
:1043600008E00DB9012000E0002002462146384651
:10437000FFF76EFE4FEA6B0B601CC4B2A4EB0A00A1
:10438000102803DB5446781CC7B206E009F101008F
:1043900000F0FF09B9F1080FDADB00BF701CC6B2EC
:1043A00000988642CBDBBDE8FC8F0000209000081F
:1043B0002DE9FE4F07460C461546984602941D20EF
:1043C00001902020009067E0002660E02878C6EB8E
:1043D000C60101EB8101334A515C884255D16878AE
:1043E000C6EBC60101EB81011144497888424CD1EA
:1043F000702F04DD002704F11000C4B20294302CA9
:1044000004DDFFF703FE0020044607464FF00009D5
:1044100037E0C6EBC60000EB800022490844C01C10
:1044200010F809B04FF0000A23E00BF0010028B1AA
:10443000424621463846FFF70BFE0AE0B8F1000F6E
:1044400001D1012000E00020024621463846FFF756
:10445000FFFD4FEA6B0B601CC4B20298201A1028B3
:1044600003DB029C781CC7B206E00AF1010000F0F1
:10447000FF0ABAF1080FD8DB00BF09F1010000F014
:10448000FF0900988145C4DB04E0701CC6B20198A6
:1044900086429BDB00BFAD1C2878002894D1BDE884
:1044A000FE8F0000109600082DE9FE4F04460D46D1
:1044B0001646994600200290824646E0A9F1010086
:1044C000A0EB0A010A2002F067FD02460B46CDE987
:1044D000000130460021FCF715F807460A220023A8
:1044E000FCF710F802F0FF0BBBF1000F0FD10298A0
:1044F00030B92022294620460C9BFFF711FF10E01F
:104500003022294620460C9BFFF70AFF09E00120D4
:1045100002900BF13000C2B2294620460C9BFFF7F7
:10452000FFFE04F10800C4B2782C03DD002405F17D
:104530001000C5B2302D04DDFFF768FD00200546F0
:1045400004460AF1010000F0FF0ACA45B6DBBDE8E7
:10455000FE8F2DE9F04105460E4614461F4616E033
:10456000782D03DD002506F11000C6B2302E04DDE3
:10457000FFF74CFD00200646054614F8012B3B468C
:1045800031462846FFF7CCFE05F10800C5B2207879
:10459000202802DB20787E28E2DDBDE8F0810000E3
:1045A00010B50F48007810B9FFF724F916E00C4851
:1045B0000078012802D100F027FB0FE008480078BE
:1045C000022802D100F0D6FA08E005480078032856
:1045D00002D100F009FC01E000F04CFA10BD00002F
:1045E000B804002004E0FFF7DBFFC82003F034FD2F
:1045F000F9E770B504460D461DB1E0B201F0F8F8D8
:1046000002E0E0B201F0DEF870BD000029B1064A18
:1046100012680243044B1A6004E0034A12688243A2
:10462000014B1A60704700003038024029B1064A39
:1046300012680243044B1A6004E0034A1268824382
:10464000014B1A60704700004038024029B1064A09
:1046500012680243044B1A6004E0034A1268824362
:10466000014B1A607047000044380240F0B5002149
:1046700000220024022500260223324F3F6807F063
:104680000C0121B1042905D0082937D105E02E4FAE
:10469000076036E02D4F076033E02A4F3F1F3F6829
:1046A000C7F38056274F3F1F3F6807F03F036EB1A7
:1046B000264FB7FBF3F7DFF88CC0ACF1040CDCF845
:1046C00000C0CCF3881C07FB0CF40CE01E4FB7FBBA
:1046D000F3F7DFF870C0ACF1040CDCF800C0CCF3E9
:1046E000881C07FB0CF4174F3F1F3F68C7F30147B7
:1046F0007F1C7D00B4FBF5F7076002E0124F0760F6
:1047000000BF00BF0F4F3F6807F0F0010909104FCD
:104710007A5C0768D74047600A4F3F6807F4E0516A
:10472000890A0B4F7A5C4768D7408760054F3F681E
:1047300007F46041490B064F7A5C4768D740C76071
:10474000F0BD0000083802400024F40000127A0096
:104750001A00002010B54FF4805000F01FF830B15F
:104760000020054908604FF4805000F007F84FF42E
:104770000030FEF76DFC10BDA48242420021010909
:104780008AB242F08002044B1B6803F0800363EAA4
:104790000202014B1A6070470C28004030B50146F8
:1047A0000020002200230C4C246804F004020A4C70
:1047B000383C24680C4002EAD13544EA0503064C33
:1047C000343C246804EA11121BB194B20CB10120EC
:1047D00000E0002030BD00004028004010B54FF43C
:1047E0008040FFF7DBFF48B10120054908608003E6
:1047F000FFF7C4FF4FF48000FEF72AFC10BD000055
:104800002C00002030B500228B071C0F0F2303FA69
:1048100004F20B4B8C1053F824309343084C8D104A
:1048200044F8253023468C1053F824308C07240F8D
:1048300000FA04F42343024C8D1044F8253030BDB7
:10484000083801400CB50020019000903448006801
:1048500040F480303249086000BF3148006800F4FD
:10486000003000900198401C0190009818B9019800
:10487000B0F5A04FF1D12A48006800F4003010B123
:104880000120009001E0002000900098012846D10E
:1048900023484030006840F0805021494031086092
:1048A0002048006840F440401E4908601C48083019
:1048B00000681B49083108600846006840F4004061
:1048C00008600846006840F4A05008601648091FB8
:1048D0000860081F006840F08070091F086000BF72
:1048E0000F48006800F000700028F9D040F2057011
:1048F0000E4908600A480830006820F003000849A3
:10490000083108600846006840F00200086000BFF7
:1049100003480830006800F00C000828F8D10CBDEE
:10492000003802400070004008544007003C02403C
:1049300038B5044600F0C8F9012C06D0022C18D076
:10494000032C2AD0042C73D15DE0002001231A46E9
:1049500001460090FFF7A8FD00232D2219460820EC
:10496000FFF7DEFC002335A219461020FFF720FDDB
:104970005FE000200123022210210090FFF794FD48
:1049800000232D2210210820FFF7CAFC00232EA2AD
:1049900010210846FFF70CFD4BE000200123032205
:1049A00020210090FFF780FD00232D2220210820E8
:1049B000FFF7B6FC002328A220211020FFF7F8FC07
:1049C000002327A220213020FFF7C3FD0020012370
:1049D0000222202100904020FFF766FD00232E22B6
:1049E00020214820FFF79CFC0020012305222021E4
:1049F00000905020FFF758FD002315A220215820D9
:104A0000FFF7D6FC15E0002001230422302100909E
:104A1000FFF74AFD00232D2230210820FFF780FCFC
:104A2000002310A230211020FFF7C2FC01E0FFE7B5
:104A300000BF00BFFFF7EEFB38BD0000B2E9D1AF09
:104A4000CEC2CAAAB6C80000B2E9D1AFBCD7C8A9C5
:104A5000C5A8B6C800000000B2E9D1AF0000000050
:104A6000504D0000B5F7BDDAB7E7C9C8D7AACBD912
:104A70000000000008B5FFF7E1FA2D481E231A4692
:104A8000194600900020FFF7F6FB002329A21946E3
:104A90002020FFF78DFC2A480078022805D1FEF778
:104AA00007FD00202649087008E025480078032803
:104AB00004D1FEF7EBFC0020214908702148006872
:104AC000052827D2DFE800F0030A11181F00012390
:104AD0001DA220212820FFF76BFC1CE001231CA253
:104AE00020212820FFF764FC15E001231AA22021D1
:104AF0002820FFF75DFC0EE0012319A220212820C9
:104B0000FFF756FC07E0012317A220212820FFF71A
:104B10004FFC00E000BF00BFFFF77CFB08480078B7
:104B2000012804D1002012490870FFF787FA08BD58
:104B3000079A0008B7E7C9C8D7AACBD90000000078
:104B40002A0000203C000020B9D8B1D500000000A8
:104B5000D7EEB5CDCBD90000B5CDCBD90000000044
:104B6000CACAD6D000000000D7EEB8DFCBD900000B
:104B7000B804002000B52DED028B89B0202101A8DA
:104B8000FCF702F8FFF75AFA002316A2194618207C
:104B9000FFF70EFC164890ED000A10EE100A04F024
:104BA00041F941EC180B53EC182B12A101A8FBF7AB
:104BB00039FD11A101A8FBF761FF012301AA18210A
:104BC0000820FFF7C6FCFFF725FB0D4800780128F9
:104BD00004D100200B490870FFF730FA09B0BDEC92
:104BE000028B00BDBCD7C8A9C5A8B6C8A3BA00002F
:104BF0004C000020256600006D672F6D5E330000BD
:104C00002A000020B804002008B5FFF717FA23484F
:104C100020231A46002100900846FFF72CFB0123B1
:104C20001FA208212020FFF7C3FB1F4820231A469C
:104C3000194600900020FFF71EFB01231BA2242130
:104C40002020FFF7B5FB012000901A48827802234C
:104C500008215020FFF728FC012317A20821682013
:104C6000FFF7A6FB012000901248027802232421BE
:104C70005020FFF719FC012310A224216820FFF720
:104C800068FCFFF7C7FA0E480078012804D100201D
:104C90000C490870FFF7D2F908BD00007F9A0008A0
:104CA000CEC2B6C8A3BA0000FF9A0008CAAAB6C806
:104CB000A3BA000044000020A1E6000025524800ED
:104CC0002A000020B804002008B50120034602464F
:104CD000002100900846FFF7E7FB01232D22002169
:104CE0000820FFF71DFB012331A200211020FFF750
:104CF0005FFB012003460222102100900020FFF7F5
:104D0000D3FB01232D2210210820FFF709FB0123EB
:104D10002AA210210846FFF74BFB0120034603227D
:104D2000202100900020FFF7BFFB01232D2220212E
:104D30000820FFF7F5FA012324A220211020FFF715
:104D400037FB012323A220213020FFF702FC0120A2
:104D500003460222202100904020FFF7A5FB0123FB
:104D60002E2220214820FFF7DBFA012003460522EE
:104D7000202100905020FFF797FB012311A2202152
:104D80005820FFF715FB0120034604223021009034
:104D90000020FFF789FB01232D2230210820FFF797
:104DA000BFFA01230CA230211020FFF701FB08BD40
:104DB000B2E9D1AFCEC2CAAAB6C80000B2E9D1AF3B
:104DC000BCD7C8A9C5A8B6C800000000B2E9D1AFD9
:104DD00000000000504D0000B5F7BDDAB7E7C9C8C4
:104DE000D7AACBD90000000000B52DED028B89B009
:104DF000202101A8FBF7C8FEFFF720F9002324A219
:104E000019461020FFF7A5FB0020012302220146CE
:104E100000902020FFF748FB00232E22194628206F
:104E2000FFF77EFA00200123052201460090302082
:104E3000FFF73AFB002317A219463820FFF7B8FA0C
:104E4000164890ED000A10EE100A03F0EBFF41EC5B
:104E5000180B53EC182B12A101A8FBF7E3FB11A1CF
:104E600001A8FBF70BFE012301AA18210820FFF778
:104E700070FBFFF7CFF90D480078012804D100201E
:104E80000B490870FFF7DAF809B0BDEC028B00BDE2
:104E9000504D0000C5A8B6C8A3BA000040000020CD
:104EA000256600006D672F6D5E3300002A0000202C
:104EB000B804002010B500BF502080F31188BFF364
:104EC0004F8FBFF36F8F00BF03F0CEFA18B14FF0D2
:104ED00080500449086000BF002080F3118800BFA3
:104EE00010BD000004ED00E010B51548006840F466
:104EF0007000134908601348006840F00100114930
:104F0000086000200F49083108600E4800680E490B
:104F100008400C4908600D48091D0860081F00681A
:104F200020F48020091F0860002006490C31086029
:104F3000FFF788FC4FF0006001498039086010BD20
:104F400088ED00E000380240FFFFF6FE103000243C
:104F500010B50121064800F05AF840B10548007824
:104F6000401C044908700121014800F041F810BDBF
:104F700000100040300000201FB501211020FFF775
:104F800055FB4CF24F30029042F2CF00ADF80400D6
:104F90000020ADF80600ADF80C0001A90D4800F0A6
:104FA000B3F836208DF8000000208DF801000120B4
:104FB0008DF802008DF803006846FEF7E1FF01223C
:104FC0001146044800F034F80121024800F013F8BB
:104FD0001FBD00000010004021B1028842F0800295
:104FE000028004E002884FF67F731A400280704707
:104FF000CA430282704721B1028842F00102028056
:1050000004E002884FF6FE731A400280704730B504
:105010000246002000230024158A05EA0103958931
:1050200005EA010413B10CB1012000E0002030BDFD
:105030001AB183890B43838102E083898B43838187
:105040007047000070B5002400220023058C4FF645
:10505000EF7635400584028C8388048B48F6FF7513
:105060002C404FF6FF452C400D884FF6FF7606EAA0
:1050700005252C434FF6DF752A408D8906EA051574
:105080002A434D8806EA05152A43154DA84202D049
:10509000144DA8421DD14FF67F752A40CD894FF699
:1050A000FF7606EA05152A434FF6BF752A408D881C
:1050B00006EA05152A434FF6FF352B404FF2FF75E0
:1050C0002B400D8A06EA85052B434D8A06EA8505A5
:1050D0002B43838004838D688563028470BD000048
:1050E00000000140000401400A460021018B4FF2FC
:1050F000FF7319404FF6FF7303EA0223194301833C
:10510000704781637047000000220288184B984264
:105110000ED0184B98420BD0B0F1804F08D0164BF0
:10512000984205D0154B984202D0154B984204D1B5
:105130004FF68F731A404B881A43124B984207D090
:10514000114B984204D04FF6FF431A400B891A4383
:1051500002804B68C3620B880385054B984202D0DE
:10516000044B984201D18B7A0386012383827047D6
:10517000000001400004014000040040000800401D
:10518000000C0040001000400014004010B540F238
:1051900025511D4800F08BF910B31B4800F040FA70
:1051A000C4B21A48008800F40040C8B91748008803
:1051B00000F4804060B10A2C03D00020134908801D
:1051C00021E01248008840F40040104908801AE0AD
:1051D0000D2C06D10D48008840F480400B49088012
:1051E00011E00A480088C0F30D0009490C54074833
:1051F0000088401C0549088008460088B0F5806F8B
:1052000001DB0020088010BD0010014018000020C4
:10521000FC04002010B540F225510E4800F047F97B
:10522000B0B10C4800F0FCF9C4B20B48007878B972
:105230000A4801780078401C084A10700848445415
:105240000A2C05D10020114608700120024908707F
:1052500010BD000000440040550000205400002014
:10526000FC10002010B588B0044601210846FFF765
:10527000CDF901214804FFF7D9F90722022122487C
:10528000FEF770F9072203211F48FEF76BF9022091
:105290008DF8080003208DF8090000208DF80A0021
:1052A00001208DF80B000C20019001A91648FEF793
:1052B00011F904940020ADF81400ADF81600ADF813
:1052C0001800ADF81C000C20ADF81A0004A90F4816
:1052D00000F03CF926208DF80C0003208DF80D001D
:1052E0008DF80E0001208DF80F0003A8FEF748FE90
:1052F000012240F22551054800F003F9012103483D
:1053000000F0BCF808B010BD0000024000440040AE
:1053100010B540F22551114800F0C9F8B8B10F4856
:1053200000F07EF90E4908700A780E490868411CA1
:105330000C4B19600C490A5418460068B0F5007F00
:1053400005D300201946086001200849087040F282
:105350002551024800F083F810BD000000480040CD
:105360003800002034000020FC0A00203900002012
:1053700010B588B0044601210220FFF747F901214A
:105380008804FFF753F907220A212348FEF7EAF8B9
:1053900007220B212048FEF7E5F84FF44060069005
:1053A00002208DF81C0003208DF81D0000208DF8D0
:1053B0001E0001208DF81F0006A91748FEF78AF885
:1053C00002940020ADF80C00ADF80E00ADF810000E
:1053D000ADF814000C20ADF8120002A90F4800F03F
:1053E000B5F801210D4800F049F8012240F225519D
:1053F0000A4800F086F827208DF8040003208DF875
:1054000005008DF8060001208DF8070001A8FEF7C1
:10541000B7FD08B010BD0000000402400048004085
:1054200010B504460BE02178074800F01BF900BFD7
:105430008021054800F02EF80028F9D0641C20785F
:105440000028F0D110BD00000048004001F40072B7
:10545000B2F5007F00D100BFCA430280704710B58B
:105460000022002340F66A14A14200D100BF0A12B4
:1054700001249440A3B2DC43048010BD21B1828991
:1054800042F40052828104E082894DF6FF731A4093
:105490008281704702460020B1F5007F00D100BF35
:1054A00013880B400BB1012000E00020704770B55D
:1054B0000246002400230025002040F66A16B1426F
:1054C00000D100BFC1F3421501F01F03012606FA07
:1054D00003F3012D02D19689334006E0022D02D15B
:1054E000168A334001E0968A33400C12012606FAF0
:1054F00004F41688344013B10CB1012000E0002000
:1055000070BDF0B50346002400260025002040F6BB
:105510006A17B94200D100BF1846C1F3421401F026
:105520001F06012707FA06F5012C01D10C3004E013
:10553000022C01D1103000E014301AB107682F435B
:10554000076002E00768AF430760F0BD2DE9FF4741
:1055500005460E460024A14600BFA046B08900B112
:1055600000BF2C8A24F44054F08804432C82AC8978
:1055700041F20C608443B088318908437189084343
:105580000443AC81AC8A24F44074B0890443AC82F7
:105590006846FFF76BF82048854202D01F488542D5
:1055A00002D1DDF80C9001E0DDF80890A88900F444
:1055B000004040B109EBC90000EB09103168490017
:1055C000B0FBF1F707E009EBC90000EB0910316807
:1055D0008900B0FBF1F76420B7FBF0F0040120096B
:1055E000642101FB1078A88900F4004040B132200A
:1055F00000EBC800B0FBF1F000F00700044308E046
:10560000322000EB08106421B0FBF1F000F00F0035
:1056100004432C81BDE8FF870010014000140140C5
:1056200001468888C0F3080070472DE9F04107461D
:105630000C46154626460FE03178384600F012F841
:10564000761C00BF80213846FFF724FF0028F9D0E0
:1056500080213846FFF7FAFE281EA5F10105EBD19F
:10566000BDE8F081C1F30802828070471CB50121BA
:105670000420FEF7CBFF8020009001208DF804006D
:1056800000208DF8060001208DF8070003208DF81A
:10569000050069460348FDF71DFF80210148FDF71D
:1056A0008FFF1CBD0008024000BFFEE734E002F09F
:1056B000BFFD1A480078012817D1194919A0FAF737
:1056C000A5FF1EA11648FBF75DF918B100201D4982
:1056D000087007E01CA11248FBF754F910B1012033
:1056E0001849087000200D49087001F091F8FDF785
:1056F000A1FE17480068002804DD80211548FDF749
:105700005DFF03E080211348FDF75AFF02F050FFD0
:105710004FF4FA7002F0A0FCC9E700005500002029
:10572000FC100020C0B6D1C0CAD5B5BDC1CBCAFDE2
:10573000BEDD3A202573200D0A000000554E4C4F67
:10574000434B0000DC0400204C4F434B00000000A2
:105750003C0000200008024070B504460025FDF71B
:105760007FFF40211548FDF729FF042000F0B7FA1C
:1057700000BF20E004F0800020B180211048FDF738
:105780001FFF03E080210E48FDF718FF6006040E9E
:10579000042000F0A4FA40210848FDF711FF04207E
:1057A00000F09DFA40210548FDF708FF042000F0B5
:1057B00096FA681CC5B2082DDCDB70BD000C0240F7
:1057C0000004024010B50446FDF764FF7820FFF79F
:1057D000C3FFFDF7A3FF0020FFF7BEFFFDF79EFF0D
:1057E0002046FFF7B9FFFDF799FFFDF775FF10BDE4
:1057F00010B50446FDF74EFF7820FFF7ADFFFDF72B
:105800008DFF4020FFF7A8FFFDF788FF2046FFF738
:10581000A3FFFDF783FFFDF75FFF10BD03B4019801
:105820004100009850EAC12018BF04204A0D18BF5B
:1058300040F0010040F2FF72B2EB515F08BF40F050
:105840000200012808BF052002B0704700000000D8
:1058500030B52DED048B81B0B0EE408AF0EE608A59
:105860006A4651EC180B00F02BFC00989FED329B20
:105870007E300090002821DC53EC192B51EC180BE2
:1058800003F0E2F81AD0002140F608004FF00000C3
:10589000044651EC180B02F039FF08EE100A40F6EE
:1058A000080004EA00014FF00000B5EEC08AF1EEF6
:1058B00010FA04BF0220FCF79CF92DE00098FF28A5
:1058C00030DB002108464FF0000000F4400553ECA7
:1058D000192B51EC180B03F06FFA8CBF0024012434
:1058E0000220FCF786F99FED168A4DB1002C0CBF03
:1058F0004FF400004FF48000A84218BF9FED118ABA
:10590000042108464FF00000002C01BFB1EE480A08
:1059100001B0BDEC048B30BDB0EE480A01B0BDEC67
:10592000048B30BD51EC180B02F0F0FE01B000EE1C
:10593000100ABDEC048B30BD000000000000000028
:105940000000807FFFFF7F7F30B540F2FF742DEDB8
:10595000048BF0EE608A18EE901A85B0B0EE408AA3
:105960009FED2B9B05468DED008B34EA115147D0FE
:1059700053EC192B51EC180B03F066F840D02A4673
:1059800051EC180B03F000FB41EC180B18EE900AD9
:105990008DED008B34EA10501CD053EC192B51ECD8
:1059A000180B03F051F82BD10220FCF722F900F07C
:1059B00043F810EE901A18EE900A8DED020B8DED63
:1059C000008B61F31E0003909DED020B05B0BDEC52
:1059D000048B30BD0220FCF70CF900F01DF810EE2E
:1059E000901A18EE900A8DED020B8DED008B61F38D
:1059F0001E0003909DED020B05B0BDEC048B30BD85
:105A000005B0B0EE480AF0EE680ABDEC048B30BD7C
:105A100000000000000000009FED050B10B553ECE6
:105A2000102B51EC100B03F0C9F841EC100B10BD1A
:105A300000000000000000709FED050B10B553EC56
:105A4000102B51EC100B03F0B9F841EC100B10BD0A
:105A5000000000000000001010B5044691ED000B9E
:105A6000FFF7F6FE84ED000A10BD10B5044690ED78
:105A7000000B0846FFF768FF84ED000B10BD3038BF
:105A80000A2801D2012070470020704700BF7047EC
:105A9000014609B1086808B90020704719B1D1E979
:105AA0000120904201D30846F7E702E08868401CD5
:105AB000886041B1D1E90120904204D28A68086827
:105AC000805C2028F2DDD1E90120904202D1886873
:105AD000401E88600846E0E770B50446002522E0D5
